{
  "address": "0x1bbE773134E6aC83541C3baCF384f55E5d50F0Ae",
  "abi": [
    {
      "inputs": [
        {
          "internalType": "address",
          "name": "_initialOwner",
          "type": "address"
        }
      ],
      "stateMutability": "nonpayable",
      "type": "constructor"
    },
    {
      "inputs": [
        {
          "internalType": "address",
          "name": "owner",
          "type": "address"
        }
      ],
      "name": "OwnableInvalidOwner",
      "type": "error"
    },
    {
      "inputs": [
        {
          "internalType": "address",
          "name": "account",
          "type": "address"
        }
      ],
      "name": "OwnableUnauthorizedAccount",
      "type": "error"
    },
    {
      "anonymous": false,
      "inputs": [
        {
          "indexed": true,
          "internalType": "uint256",
          "name": "matchId",
          "type": "uint256"
        },
        {
          "indexed": false,
          "internalType": "address",
          "name": "player1",
          "type": "address"
        },
        {
          "indexed": false,
          "internalType": "address",
          "name": "player2",
          "type": "address"
        },
        {
          "indexed": false,
          "internalType": "uint256",
          "name": "timestamp",
          "type": "uint256"
        }
      ],
      "name": "ActiveFightersSet",
      "type": "event"
    },
    {
      "anonymous": false,
      "inputs": [
        {
          "indexed": true,
          "internalType": "uint256",
          "name": "matchId",
          "type": "uint256"
        },
        {
          "indexed": true,
          "internalType": "address",
          "name": "fighterCheeredFor",
          "type": "address"
        },
        {
          "indexed": true,
          "internalType": "address",
          "name": "audienceMember",
          "type": "address"
        },
        {
          "indexed": false,
          "internalType": "uint256",
          "name": "newTotalHeatForThisPairing",
          "type": "uint256"
        },
        {
          "indexed": false,
          "internalType": "uint256",
          "name": "cheerAmount",
          "type": "uint256"
        },
        {
          "indexed": false,
          "internalType": "uint256",
          "name": "timestamp",
          "type": "uint256"
        }
      ],
      "name": "FighterCheered",
      "type": "event"
    },
    {
      "anonymous": false,
      "inputs": [
        {
          "indexed": true,
          "internalType": "address",
          "name": "previousOwner",
          "type": "address"
        },
        {
          "indexed": true,
          "internalType": "address",
          "name": "newOwner",
          "type": "address"
        }
      ],
      "name": "OwnershipTransferred",
      "type": "event"
    },
    {
      "anonymous": false,
      "inputs": [
        {
          "indexed": true,
          "internalType": "uint256",
          "name": "matchId",
          "type": "uint256"
        },
        {
          "indexed": true,
          "internalType": "uint256",
          "name": "seatId",
          "type": "uint256"
        },
        {
          "indexed": true,
          "internalType": "address",
          "name": "user",
          "type": "address"
        },
        {
          "indexed": false,
          "internalType": "uint256",
          "name": "timestamp",
          "type": "uint256"
        }
      ],
      "name": "SeatLeft",
      "type": "event"
    },
    {
      "anonymous": false,
      "inputs": [
        {
          "indexed": true,
          "internalType": "uint256",
          "name": "matchId",
          "type": "uint256"
        },
        {
          "indexed": true,
          "internalType": "uint256",
          "name": "seatId",
          "type": "uint256"
        },
        {
          "indexed": true,
          "internalType": "address",
          "name": "user",
          "type": "address"
        },
        {
          "indexed": false,
          "internalType": "uint256",
          "name": "timestamp",
          "type": "uint256"
        }
      ],
      "name": "SeatTaken",
      "type": "event"
    },
    {
      "inputs": [],
      "name": "TOTAL_SEATS",
      "outputs": [
        {
          "internalType": "uint256",
          "name": "",
          "type": "uint256"
        }
      ],
      "stateMutability": "view",
      "type": "function"
    },
    {
      "inputs": [
        {
          "internalType": "uint256",
          "name": "",
          "type": "uint256"
        },
        {
          "internalType": "uint256",
          "name": "",
          "type": "uint256"
        }
      ],
      "name": "activeFightersInMatch",
      "outputs": [
        {
          "internalType": "address",
          "name": "",
          "type": "address"
        }
      ],
      "stateMutability": "view",
      "type": "function"
    },
    {
      "inputs": [
        {
          "internalType": "uint256",
          "name": "_matchId",
          "type": "uint256"
        },
        {
          "internalType": "address",
          "name": "_fighterToCheerFor",
          "type": "address"
        },
        {
          "internalType": "uint256",
          "name": "_cheerPoints",
          "type": "uint256"
        }
      ],
      "name": "cheerForFighter",
      "outputs": [],
      "stateMutability": "nonpayable",
      "type": "function"
    },
    {
      "inputs": [
        {
          "internalType": "uint256",
          "name": "",
          "type": "uint256"
        },
        {
          "internalType": "address",
          "name": "",
          "type": "address"
        },
        {
          "internalType": "address",
          "name": "",
          "type": "address"
        }
      ],
      "name": "fighterAudienceHeat",
      "outputs": [
        {
          "internalType": "uint256",
          "name": "",
          "type": "uint256"
        }
      ],
      "stateMutability": "view",
      "type": "function"
    },
    {
      "inputs": [
        {
          "internalType": "uint256",
          "name": "_matchId",
          "type": "uint256"
        }
      ],
      "name": "getActiveFighters",
      "outputs": [
        {
          "internalType": "address[2]",
          "name": "",
          "type": "address[2]"
        }
      ],
      "stateMutability": "view",
      "type": "function"
    },
    {
      "inputs": [
        {
          "internalType": "uint256",
          "name": "_matchId",
          "type": "uint256"
        },
        {
          "internalType": "address",
          "name": "_fighter",
          "type": "address"
        },
        {
          "internalType": "address",
          "name": "_audienceMember",
          "type": "address"
        }
      ],
      "name": "getAudienceHeatForFighter",
      "outputs": [
        {
          "internalType": "uint256",
          "name": "",
          "type": "uint256"
        }
      ],
      "stateMutability": "view",
      "type": "function"
    },
    {
      "inputs": [
        {
          "internalType": "uint256",
          "name": "_matchId",
          "type": "uint256"
        }
      ],
      "name": "getOccupiedSeatInfo",
      "outputs": [
        {
          "internalType": "uint256[]",
          "name": "seatIds_",
          "type": "uint256[]"
        },
        {
          "internalType": "address[]",
          "name": "occupants_",
          "type": "address[]"
        }
      ],
      "stateMutability": "view",
      "type": "function"
    },
    {
      "inputs": [
        {
          "internalType": "uint256",
          "name": "_matchId",
          "type": "uint256"
        },
        {
          "internalType": "uint256",
          "name": "_seatIdFromFrontend",
          "type": "uint256"
        }
      ],
      "name": "getSeatOccupant",
      "outputs": [
        {
          "internalType": "address",
          "name": "",
          "type": "address"
        }
      ],
      "stateMutability": "view",
      "type": "function"
    },
    {
      "inputs": [
        {
          "internalType": "uint256",
          "name": "_matchId",
          "type": "uint256"
        },
        {
          "internalType": "address",
          "name": "_user",
          "type": "address"
        }
      ],
      "name": "getUserSeatId",
      "outputs": [
        {
          "internalType": "uint256",
          "name": "",
          "type": "uint256"
        }
      ],
      "stateMutability": "view",
      "type": "function"
    },
    {
      "inputs": [
        {
          "internalType": "uint256",
          "name": "_matchId",
          "type": "uint256"
        }
      ],
      "name": "leaveSeat",
      "outputs": [],
      "stateMutability": "nonpayable",
      "type": "function"
    },
    {
      "inputs": [],
      "name": "owner",
      "outputs": [
        {
          "internalType": "address",
          "name": "",
          "type": "address"
        }
      ],
      "stateMutability": "view",
      "type": "function"
    },
    {
      "inputs": [],
      "name": "renounceOwnership",
      "outputs": [],
      "stateMutability": "nonpayable",
      "type": "function"
    },
    {
      "inputs": [
        {
          "internalType": "uint256",
          "name": "",
          "type": "uint256"
        },
        {
          "internalType": "uint256",
          "name": "",
          "type": "uint256"
        }
      ],
      "name": "seatOccupants",
      "outputs": [
        {
          "internalType": "address",
          "name": "",
          "type": "address"
        }
      ],
      "stateMutability": "view",
      "type": "function"
    },
    {
      "inputs": [
        {
          "internalType": "uint256",
          "name": "_matchId",
          "type": "uint256"
        },
        {
          "internalType": "address",
          "name": "_player1",
          "type": "address"
        },
        {
          "internalType": "address",
          "name": "_player2",
          "type": "address"
        }
      ],
      "name": "setActiveFighters",
      "outputs": [],
      "stateMutability": "nonpayable",
      "type": "function"
    },
    {
      "inputs": [
        {
          "internalType": "uint256",
          "name": "_matchId",
          "type": "uint256"
        },
        {
          "internalType": "uint256",
          "name": "_seatIdFromFrontend",
          "type": "uint256"
        }
      ],
      "name": "takeSeat",
      "outputs": [],
      "stateMutability": "nonpayable",
      "type": "function"
    },
    {
      "inputs": [
        {
          "internalType": "address",
          "name": "newOwner",
          "type": "address"
        }
      ],
      "name": "transferOwnership",
      "outputs": [],
      "stateMutability": "nonpayable",
      "type": "function"
    },
    {
      "inputs": [
        {
          "internalType": "uint256",
          "name": "",
          "type": "uint256"
        },
        {
          "internalType": "address",
          "name": "",
          "type": "address"
        }
      ],
      "name": "userCurrentSeat",
      "outputs": [
        {
          "internalType": "uint256",
          "name": "",
          "type": "uint256"
        }
      ],
      "stateMutability": "view",
      "type": "function"
    }
  ],
  "transactionHash": "0x1fd7fd7b57faf4fb2e761f919cc81ce9a11f3c327e7734607778d60def732f17",
  "args": [
    "0x8d6184D01C461d53044094c6e8850bf60604dDA2"
  ],
  "numDeployments": 1,
  "solcInputHash": "9c31133fffffde4826cff076505bdc89",
  "bytecode": "0x608060405234801561001057600080fd5b5060405161146238038061146283398101604081905261002f916100be565b806001600160a01b03811661005e57604051631e4fbdf760e01b81526000600482015260240160405180910390fd5b6100678161006e565b50506100ee565b600080546001600160a01b038381166001600160a01b0319831681178455604051919092169283917f8be0079c531659141344cd1fd0a4f28419497f9722a3daafe3b4186f6b6457e09190a35050565b6000602082840312156100d057600080fd5b81516001600160a01b03811681146100e757600080fd5b9392505050565b611365806100fd6000396000f3fe608060405234801561001057600080fd5b506004361061010b5760003560e01c80638da5cb5b116100a2578063bca3220e11610071578063bca3220e1461025a578063dc09fd291461026d578063f2fde38b14610280578063fdd1896a14610293578063ffa82e1a146102d157600080fd5b80638da5cb5b1461020257806394ed4bb51461021357806398cf4b3b14610226578063aeb75c861461023957600080fd5b80636292ad45116100de5780636292ad451461019c57806370e1118a146101af578063715018a6146101da5780638685733f146101e257600080fd5b806304c8e074146101105780630bcb253d146101545780634d6020bb1461017f578063608cad4314610194575b600080fd5b61014161011e3660046110c1565b600360209081526000938452604080852082529284528284209052825290205481565b6040519081526020015b60405180910390f35b6101676101623660046110fd565b610305565b6040516001600160a01b03909116815260200161014b565b61019261018d36600461111f565b610333565b005b610141603281565b6101926101aa366004611138565b6104fe565b6101416101bd36600461116d565b600260209081526000928352604080842090915290825290205481565b610192610879565b6101f56101f036600461111f565b61088d565b60405161014b9190611199565b6000546001600160a01b0316610167565b6101926102213660046110c1565b6108de565b61014161023436600461116d565b610a9d565b61024c61024736600461111f565b610ac7565b60405161014b9291906111d3565b6101676102683660046110fd565b610cb0565b61019261027b3660046110fd565b610d4b565b61019261028e366004611257565b610f5f565b6101416102a13660046110c1565b60009283526003602090815260408085206001600160a01b03948516865282528085209290931684525290205490565b6101676102df3660046110fd565b60016020908152600092835260408084209091529082529020546001600160a01b031681565b6004602052816000526040600020816002811061032157600080fd5b01546001600160a01b03169150829050565b338161035a5760405162461bcd60e51b815260040161035190611279565b60405180910390fd5b60008281526002602090815260408083206001600160a01b0385168452909152902054806103d95760405162461bcd60e51b815260206004820152602660248201527f41756469656e63654d616e616765723a20596f7520617265206e6f7420696e2060448201526518481cd9585d60d21b6064820152608401610351565b60006103e66001836112c4565b60008581526001602090815260408083208484529091529020549091506001600160a01b0384811691161461047c5760405162461bcd60e51b815260206004820152603660248201527f41756469656e63654d616e616765723a20596f7520617265206e6f7420746865604482015275081bd8d8dd5c185b9d081bd9881d1a1a5cc81cd9585d60521b6064820152608401610351565b6000848152600160209081526040808320848452825280832080546001600160a01b0319169055868352600282528083206001600160a01b0387168085529083528184209390935551428152849187917f733b5fb253da0fee681b46effd3c6c768c4f091f77bc6ae9db7ae7cf371cfbd291015b60405180910390a450505050565b338361051c5760405162461bcd60e51b815260040161035190611279565b600082116105895760405162461bcd60e51b815260206004820152603460248201527f41756469656e63654d616e616765723a20436865657220706f696e7473206d75604482015273073742062652067726561746572207468616e20360641b6064820152608401610351565b60008481526002602090815260408083206001600160a01b038516845290915290205461060f5760405162461bcd60e51b815260206004820152602e60248201527f41756469656e63654d616e616765723a20596f75206e65656420746f2074616b60448201526d194818481cd9585d08199a5c9cdd60921b6064820152608401610351565b6000848152600460205260408082208151808301928390529160029082845b81546001600160a01b0316815260019091019060200180831161062e575050505050905060006001600160a01b031681600060028110610670576106706112d7565b60200201516001600160a01b031614158015610698575060208101516001600160a01b031615155b61070a5760405162461bcd60e51b815260206004820152603e60248201527f41756469656e63654d616e616765723a2054686520666967687465727320666f60448201527f722074686973206d617463682068617665206e6f74206265656e2073657400006064820152608401610351565b80516001600160a01b0385811691161480610734575060208101516001600160a01b038581169116145b6107bd5760405162461bcd60e51b815260206004820152604e60248201527f41756469656e63654d616e616765723a205468652074617267657420666f722060448201527f6368656572696e67206973206e6f7420612076616c696420666967687465722060648201526d0ccdee440e8d0d2e640dac2e8c6d60931b608482015260a401610351565b60008581526003602090815260408083206001600160a01b0380891685529083528184209086168452909152812054906107f785836112ed565b60008881526003602090815260408083206001600160a01b038b8116808652918452828520908a168086529084529382902085905581518581529283018a90524283830152905193945091928a917fdd5769a63930e4b63a19e52389f70593b3e9d94be5cbb0890bb0955e54a8c02c919081900360600190a450505050505050565b610881610f9d565b61088b6000610fca565b565b61089561101a565b600082815260046020526040908190208151808301928390529160029082845b81546001600160a01b031681526001909101906020018083116108b55750505050509050919050565b6108e6610f9d565b600083116109065760405162461bcd60e51b815260040161035190611279565b6001600160a01b0382161580159061092657506001600160a01b03811615155b61098a5760405162461bcd60e51b815260206004820152602f60248201527f41756469656e63654d616e616765723a20506c6179657220616464726573732060448201526e63616e6e6f7420626520656d70747960881b6064820152608401610351565b806001600160a01b0316826001600160a01b031603610a115760405162461bcd60e51b815260206004820152603860248201527f41756469656e63654d616e616765723a2054776f20706c61796572206164647260448201527f65737365732063616e6e6f74206265207468652073616d6500000000000000006064820152608401610351565b6040805180820182526001600160a01b03808516825283166020808301919091526000868152600490915291909120610a4b916002611038565b50604080516001600160a01b038481168252831660208201524281830152905184917f8b03e311e2e1fc355c0f98ba02c39dda06134eb00b1b712d201ae0c67ae6d4ca919081900360600190a2505050565b60008281526002602090815260408083206001600160a01b03851684529091529020545b92915050565b6060806000805b6032811015610b1f5760008581526001602090815260408083208484529091529020546001600160a01b031615610b0d5781610b0981611300565b9250505b80610b1781611300565b915050610ace565b5080600003610b4857505060408051600080825260208201908152818301909252939092509050565b8067ffffffffffffffff811115610b6157610b61611319565b604051908082528060200260200182016040528015610b8a578160200160208202803683370190505b5092508067ffffffffffffffff811115610ba657610ba6611319565b604051908082528060200260200182016040528015610bcf578160200160208202803683370190505b5091506000805b6032811015610ca85760008681526001602090815260408083208484529091529020546001600160a01b031615610c9657610c128160016112ed565b858381518110610c2457610c246112d7565b6020908102919091018101919091526000878152600182526040808220848352909252205484516001600160a01b0390911690859084908110610c6957610c696112d7565b6001600160a01b039092166020928302919091019091015281610c8b81611300565b925050828214610ca8575b80610ca081611300565b915050610bd6565b505050915091565b60008082118015610cc2575060328211155b610d0e5760405162461bcd60e51b815260206004820152601f60248201527f41756469656e63654d616e616765723a20496e76616c696420736561744964006044820152606401610351565b600083815260016020819052604082209190610d2a90856112c4565b81526020810191909152604001600020546001600160a01b03169392505050565b3382610d695760405162461bcd60e51b815260040161035190611279565b600082118015610d7a575060328211155b610dc65760405162461bcd60e51b815260206004820152601f60248201527f41756469656e63654d616e616765723a20496e76616c696420736561744964006044820152606401610351565b60008381526002602090815260408083206001600160a01b038516845290915290205415610e4d5760405162461bcd60e51b815260206004820152602e60248201527f41756469656e63654d616e616765723a20596f75206861766520616c7265616460448201526d1e481d185ad95b8818481cd9585d60921b6064820152608401610351565b6000610e5a6001846112c4565b60008581526001602090815260408083208484529091529020549091506001600160a01b031615610ee45760405162461bcd60e51b815260206004820152602e60248201527f41756469656e63654d616e616765723a2054686973207365617420697320616c60448201526d1c9958591e481bd8d8dd5c1a595960921b6064820152608401610351565b6000848152600160209081526040808320848452825280832080546001600160a01b0319166001600160a01b0387169081179091558784526002835281842081855283529281902086905551428152859187917fde7fb897d490f283cd7a5f055bd4347223d9ac1708e24a2515b1d91cc228e53591016104f0565b610f67610f9d565b6001600160a01b038116610f9157604051631e4fbdf760e01b815260006004820152602401610351565b610f9a81610fca565b50565b6000546001600160a01b0316331461088b5760405163118cdaa760e01b8152336004820152602401610351565b600080546001600160a01b038381166001600160a01b0319831681178455604051919092169283917f8be0079c531659141344cd1fd0a4f28419497f9722a3daafe3b4186f6b6457e09190a35050565b60405180604001604052806002906020820280368337509192915050565b8260028101928215611080579160200282015b8281111561108057825182546001600160a01b0319166001600160a01b0390911617825560209092019160019091019061104b565b5061108c929150611090565b5090565b5b8082111561108c5760008155600101611091565b80356001600160a01b03811681146110bc57600080fd5b919050565b6000806000606084860312156110d657600080fd5b833592506110e6602085016110a5565b91506110f4604085016110a5565b90509250925092565b6000806040838503121561111057600080fd5b50508035926020909101359150565b60006020828403121561113157600080fd5b5035919050565b60008060006060848603121561114d57600080fd5b8335925061115d602085016110a5565b9150604084013590509250925092565b6000806040838503121561118057600080fd5b82359150611190602084016110a5565b90509250929050565b60408101818360005b60028110156111ca5781516001600160a01b03168352602092830192909101906001016111a2565b50505092915050565b604080825283519082018190526000906020906060840190828701845b8281101561120c578151845292840192908401906001016111f0565b5050508381038285015284518082528583019183019060005b8181101561124a5783516001600160a01b031683529284019291840191600101611225565b5090979650505050505050565b60006020828403121561126957600080fd5b611272826110a5565b9392505050565b6020808252818101527f41756469656e63654d616e616765723a20496e76616c6964206d617463684964604082015260600190565b634e487b7160e01b600052601160045260246000fd5b81810381811115610ac157610ac16112ae565b634e487b7160e01b600052603260045260246000fd5b80820180821115610ac157610ac16112ae565b600060018201611312576113126112ae565b5060010190565b634e487b7160e01b600052604160045260246000fdfea26469706673582212204243fd3f86fae12d9c654500b40b2dfaa18241b51593c0056af16ceb0dd6f08c64736f6c63430008140033",
  "devdoc": {
    "details": " ID10",
    "errors": {
      "OwnableInvalidOwner(address)": [
        {
          "details": "The owner is not a valid owner account. (eg. `address(0)`)"
        }
      ],
      "OwnableUnauthorizedAccount(address)": [
        {
          "details": "The caller account is not authorized to perform an operation."
        }
      ]
    },
    "kind": "dev",
    "methods": {
      "cheerForFighter(uint256,address,uint256)": {
        "details": "",
        "params": {
          "_cheerPoints": "",
          "_fighterToCheerFor": "",
          "_matchId": "ID"
        }
      },
      "getActiveFighters(uint256)": {
        "details": "ID",
        "params": {
          "_matchId": "ID"
        },
        "returns": {
          "_0": "address[2] memory ;  address(0)"
        }
      },
      "getAudienceHeatForFighter(uint256,address,address)": {
        "details": "",
        "params": {
          "_audienceMember": "",
          "_fighter": "",
          "_matchId": "ID"
        },
        "returns": {
          "_0": "uint256 "
        }
      },
      "getOccupiedSeatInfo(uint256)": {
        "details": "ID",
        "params": {
          "_matchId": "ID"
        },
        "returns": {
          "occupants_": "",
          "seatIds_": "ID (1-indexed)"
        }
      },
      "getSeatOccupant(uint256,uint256)": {
        "details": "",
        "params": {
          "_matchId": "ID",
          "_seatIdFromFrontend": "ID (1  TOTAL_SEATS)"
        },
        "returns": {
          "_0": ""
        }
      },
      "getUserSeatId(uint256,address)": {
        "details": "ID",
        "params": {
          "_matchId": "ID",
          "_user": ""
        },
        "returns": {
          "_0": "ID (1-indexed,  NO_SEAT(0))"
        }
      },
      "leaveSeat(uint256)": {
        "details": "",
        "params": {
          "_matchId": "ID"
        }
      },
      "owner()": {
        "details": "Returns the address of the current owner."
      },
      "renounceOwnership()": {
        "details": "Leaves the contract without owner. It will not be possible to call `onlyOwner` functions. Can only be called by the current owner. NOTE: Renouncing ownership will leave the contract without an owner, thereby disabling any functionality that is only available to the owner."
      },
      "setActiveFighters(uint256,address,address)": {
        "details": "",
        "params": {
          "_matchId": "ID",
          "_player1": "1",
          "_player2": "2"
        }
      },
      "takeSeat(uint256,uint256)": {
        "details": "",
        "params": {
          "_matchId": "ID",
          "_seatIdFromFrontend": "ID (1  TOTAL_SEATS)"
        }
      },
      "transferOwnership(address)": {
        "details": "Transfers ownership of the contract to a new account (`newOwner`). Can only be called by the current owner."
      }
    },
    "title": "",
    "version": 1
  },
  "userdoc": {
    "kind": "user",
    "methods": {},
    "version": 1
  },
  "storageLayout": {
    "storage": [
      {
        "astId": 8,
        "contract": "contracts/AudienceManager.sol:AudienceManager",
        "label": "_owner",
        "offset": 0,
        "slot": "0",
        "type": "t_address"
      },
      {
        "astId": 195,
        "contract": "contracts/AudienceManager.sol:AudienceManager",
        "label": "seatOccupants",
        "offset": 0,
        "slot": "1",
        "type": "t_mapping(t_uint256,t_mapping(t_uint256,t_address))"
      },
      {
        "astId": 201,
        "contract": "contracts/AudienceManager.sol:AudienceManager",
        "label": "userCurrentSeat",
        "offset": 0,
        "slot": "2",
        "type": "t_mapping(t_uint256,t_mapping(t_address,t_uint256))"
      },
      {
        "astId": 209,
        "contract": "contracts/AudienceManager.sol:AudienceManager",
        "label": "fighterAudienceHeat",
        "offset": 0,
        "slot": "3",
        "type": "t_mapping(t_uint256,t_mapping(t_address,t_mapping(t_address,t_uint256)))"
      },
      {
        "astId": 215,
        "contract": "contracts/AudienceManager.sol:AudienceManager",
        "label": "activeFightersInMatch",
        "offset": 0,
        "slot": "4",
        "type": "t_mapping(t_uint256,t_array(t_address)2_storage)"
      }
    ],
    "types": {
      "t_address": {
        "encoding": "inplace",
        "label": "address",
        "numberOfBytes": "20"
      },
      "t_array(t_address)2_storage": {
        "base": "t_address",
        "encoding": "inplace",
        "label": "address[2]",
        "numberOfBytes": "64"
      },
      "t_mapping(t_address,t_mapping(t_address,t_uint256))": {
        "encoding": "mapping",
        "key": "t_address",
        "label": "mapping(address => mapping(address => uint256))",
        "numberOfBytes": "32",
        "value": "t_mapping(t_address,t_uint256)"
      },
      "t_mapping(t_address,t_uint256)": {
        "encoding": "mapping",
        "key": "t_address",
        "label": "mapping(address => uint256)",
        "numberOfBytes": "32",
        "value": "t_uint256"
      },
      "t_mapping(t_uint256,t_address)": {
        "encoding": "mapping",
        "key": "t_uint256",
        "label": "mapping(uint256 => address)",
        "numberOfBytes": "32",
        "value": "t_address"
      },
      "t_mapping(t_uint256,t_array(t_address)2_storage)": {
        "encoding": "mapping",
        "key": "t_uint256",
        "label": "mapping(uint256 => address[2])",
        "numberOfBytes": "32",
        "value": "t_array(t_address)2_storage"
      },
      "t_mapping(t_uint256,t_mapping(t_address,t_mapping(t_address,t_uint256)))": {
        "encoding": "mapping",
        "key": "t_uint256",
        "label": "mapping(uint256 => mapping(address => mapping(address => uint256)))",
        "numberOfBytes": "32",
        "value": "t_mapping(t_address,t_mapping(t_address,t_uint256))"
      },
      "t_mapping(t_uint256,t_mapping(t_address,t_uint256))": {
        "encoding": "mapping",
        "key": "t_uint256",
        "label": "mapping(uint256 => mapping(address => uint256))",
        "numberOfBytes": "32",
        "value": "t_mapping(t_address,t_uint256)"
      },
      "t_mapping(t_uint256,t_mapping(t_uint256,t_address))": {
        "encoding": "mapping",
        "key": "t_uint256",
        "label": "mapping(uint256 => mapping(uint256 => address))",
        "numberOfBytes": "32",
        "value": "t_mapping(t_uint256,t_address)"
      },
      "t_uint256": {
        "encoding": "inplace",
        "label": "uint256",
        "numberOfBytes": "32"
      }
    }
  }
}