{
  "address": "0xC1C2De6ee01F1Ae11C2fee2d4b0b4b42Fa5F930c",
  "abi": [
    {
      "inputs": [
        {
          "internalType": "address",
          "name": "_initialOwner",
          "type": "address"
        }
      ],
      "stateMutability": "nonpayable",
      "type": "constructor"
    },
    {
      "inputs": [
        {
          "internalType": "address",
          "name": "owner",
          "type": "address"
        }
      ],
      "name": "OwnableInvalidOwner",
      "type": "error"
    },
    {
      "inputs": [
        {
          "internalType": "address",
          "name": "account",
          "type": "address"
        }
      ],
      "name": "OwnableUnauthorizedAccount",
      "type": "error"
    },
    {
      "anonymous": false,
      "inputs": [
        {
          "indexed": true,
          "internalType": "uint256",
          "name": "matchId",
          "type": "uint256"
        },
        {
          "indexed": true,
          "internalType": "address",
          "name": "fighter",
          "type": "address"
        },
        {
          "indexed": false,
          "internalType": "uint256",
          "name": "registrationTime",
          "type": "uint256"
        }
      ],
      "name": "FighterRegistered",
      "type": "event"
    },
    {
      "anonymous": false,
      "inputs": [
        {
          "indexed": true,
          "internalType": "address",
          "name": "previousOwner",
          "type": "address"
        },
        {
          "indexed": true,
          "internalType": "address",
          "name": "newOwner",
          "type": "address"
        }
      ],
      "name": "OwnershipTransferred",
      "type": "event"
    },
    {
      "anonymous": false,
      "inputs": [
        {
          "indexed": true,
          "internalType": "uint256",
          "name": "matchId",
          "type": "uint256"
        },
        {
          "indexed": false,
          "internalType": "uint256",
          "name": "closedAtTimestamp",
          "type": "uint256"
        }
      ],
      "name": "RegistrationClosed",
      "type": "event"
    },
    {
      "anonymous": false,
      "inputs": [
        {
          "indexed": true,
          "internalType": "uint256",
          "name": "matchId",
          "type": "uint256"
        },
        {
          "indexed": false,
          "internalType": "uint256",
          "name": "openedAtTimestamp",
          "type": "uint256"
        }
      ],
      "name": "RegistrationOpened",
      "type": "event"
    },
    {
      "inputs": [],
      "name": "closeCurrentMatchRegistration",
      "outputs": [],
      "stateMutability": "nonpayable",
      "type": "function"
    },
    {
      "inputs": [],
      "name": "currentMatchId",
      "outputs": [
        {
          "internalType": "uint256",
          "name": "",
          "type": "uint256"
        }
      ],
      "stateMutability": "view",
      "type": "function"
    },
    {
      "inputs": [
        {
          "internalType": "uint256",
          "name": "_matchId",
          "type": "uint256"
        }
      ],
      "name": "getCandidatePoolForMatch",
      "outputs": [
        {
          "internalType": "address[]",
          "name": "",
          "type": "address[]"
        }
      ],
      "stateMutability": "view",
      "type": "function"
    },
    {
      "inputs": [],
      "name": "getCurrentCandidatePool",
      "outputs": [
        {
          "internalType": "address[]",
          "name": "",
          "type": "address[]"
        }
      ],
      "stateMutability": "view",
      "type": "function"
    },
    {
      "inputs": [
        {
          "internalType": "uint256",
          "name": "_matchId",
          "type": "uint256"
        },
        {
          "internalType": "address",
          "name": "_candidate",
          "type": "address"
        }
      ],
      "name": "isCandidate",
      "outputs": [
        {
          "internalType": "bool",
          "name": "",
          "type": "bool"
        }
      ],
      "stateMutability": "view",
      "type": "function"
    },
    {
      "inputs": [
        {
          "internalType": "uint256",
          "name": "",
          "type": "uint256"
        },
        {
          "internalType": "address",
          "name": "",
          "type": "address"
        }
      ],
      "name": "isCandidateForMatch",
      "outputs": [
        {
          "internalType": "bool",
          "name": "",
          "type": "bool"
        }
      ],
      "stateMutability": "view",
      "type": "function"
    },
    {
      "inputs": [],
      "name": "openNewMatchRegistration",
      "outputs": [],
      "stateMutability": "nonpayable",
      "type": "function"
    },
    {
      "inputs": [],
      "name": "owner",
      "outputs": [
        {
          "internalType": "address",
          "name": "",
          "type": "address"
        }
      ],
      "stateMutability": "view",
      "type": "function"
    },
    {
      "inputs": [],
      "name": "registerAsFighter",
      "outputs": [],
      "stateMutability": "nonpayable",
      "type": "function"
    },
    {
      "inputs": [],
      "name": "registrationOpen",
      "outputs": [
        {
          "internalType": "bool",
          "name": "",
          "type": "bool"
        }
      ],
      "stateMutability": "view",
      "type": "function"
    },
    {
      "inputs": [],
      "name": "renounceOwnership",
      "outputs": [],
      "stateMutability": "nonpayable",
      "type": "function"
    },
    {
      "inputs": [
        {
          "internalType": "address",
          "name": "newOwner",
          "type": "address"
        }
      ],
      "name": "transferOwnership",
      "outputs": [],
      "stateMutability": "nonpayable",
      "type": "function"
    }
  ],
  "transactionHash": "0x1bca085e5b55995b8934dd9fbb610e7bcaf39eb4039e1ddfdc19cc30c43b8769",
  "args": [
    "0x8d6184D01C461d53044094c6e8850bf60604dDA2"
  ],
  "numDeployments": 1,
  "solcInputHash": "dc3f2dd96d54b0be6c98273dcfc7e5bf",
  "bytecode": "0x608060405234801561001057600080fd5b50604051610a07380380610a0783398101604081905261002f916100cd565b806001600160a01b03811661005e57604051631e4fbdf760e01b81526000600482015260240160405180910390fd5b6100678161007d565b505060006001556002805460ff191690556100fd565b600080546001600160a01b038381166001600160a01b0319831681178455604051919092169283917f8be0079c531659141344cd1fd0a4f28419497f9722a3daafe3b4186f6b6457e09190a35050565b6000602082840312156100df57600080fd5b81516001600160a01b03811681146100f657600080fd5b9392505050565b6108fb8061010c6000396000f3fe608060405234801561001057600080fd5b50600436106100b45760003560e01c8063736f88cd11610071578063736f88cd1461014257806375a7e6b21461014f5780638da5cb5b14610188578063e4ead04a146101a3578063f0a9571b146101ab578063f2fde38b146101be57600080fd5b806303091fa1146100b95780634f069ef6146100fc57806353729af31461011357806360c355d8146101285780636890824314610132578063715018a61461013a575b600080fd5b6100e76100c73660046107ea565b600360209081526000928352604080842090915290825290205460ff1681565b60405190151581526020015b60405180910390f35b61010560015481565b6040519081526020016100f3565b61011b6101d1565b6040516100f39190610816565b61013061025b565b005b610130610398565b61013061045f565b6002546100e79060ff1681565b6100e761015d3660046107ea565b60009182526003602090815260408084206001600160a01b0393909316845291905290205460ff1690565b6000546040516001600160a01b0390911681526020016100f3565b610130610473565b61011b6101b9366004610863565b610675565b6101306101cc36600461087c565b6106e1565b60606001546000036101f0575060408051600081526020810190915290565b6001546000908152600460209081526040918290208054835181840281018401909452808452909183018282801561025157602002820191906000526020600020905b81546001600160a01b03168152600190910190602001808311610233575b5050505050905090565b61026361071f565b6000600154116102cf5760405162461bcd60e51b815260206004820152602c60248201527f4d6174636852656769737472793a204e6f206d6174636820686173206265656e60448201526b1037b832b732b2103cb2ba1760a11b60648201526084015b60405180910390fd5b60025460ff166103555760405162461bcd60e51b8152602060048201526044602482018190527f4d6174636852656769737472793a20526567697374726174696f6e2069732061908201527f6c726561647920636c6f73656420666f72207468652063757272656e74206d616064820152633a31b41760e11b608482015260a4016102c6565b6002805460ff191690556001546040514281527f64d0f40aa47b2a1f62d09ad9f129aadd33f1cf29ccaf08d792f73dae63ab0ec2906020015b60405180910390a2565b6103a061071f565b60025460ff1680156103b457506000600154115b156103f0576001546040514281527f64d0f40aa47b2a1f62d09ad9f129aadd33f1cf29ccaf08d792f73dae63ab0ec29060200160405180910390a25b600180549060006104008361089e565b90915550506002805460ff1916600190811790915554600090815260046020526040812061042d9161079c565b6001546040514281527e92d3a0faf985375d3ea8563cdbdedd99bb694713af121204f50ccb198fb4769060200161038e565b61046761071f565b610471600061074c565b565b6000600154116104eb5760405162461bcd60e51b815260206004820152603b60248201527f4d6174636852656769737472793a204e6f206d6174636820697320637572726560448201527f6e746c79206f70656e20666f7220726567697374726174696f6e2e000000000060648201526084016102c6565b60025460ff166105565760405162461bcd60e51b815260206004820152603060248201527f4d6174636852656769737472793a20526567697374726174696f6e206973206360448201526f3ab93932b73a363c9031b637b9b2b21760811b60648201526084016102c6565b600154600090815260036020908152604080832033845290915290205460ff16156105e95760405162461bcd60e51b815260206004820152603960248201527f4d6174636852656769737472793a20596f752061726520616c7265616479207260448201527f65676973746572656420666f722074686973206d617463682e0000000000000060648201526084016102c6565b60018054600090815260036020908152604080832033808552908352818420805460ff1916861790558454845260048352818420805480870182559085529383902090930180546001600160a01b03191684179055925492514281529192917f866b4ce76d33a00550eefb50a26e4694a3446779d1bc155433373b7423ca6325910160405180910390a3565b6000818152600460209081526040918290208054835181840281018401909452808452606093928301828280156106d557602002820191906000526020600020905b81546001600160a01b031681526001909101906020018083116106b7575b50505050509050919050565b6106e961071f565b6001600160a01b03811661071357604051631e4fbdf760e01b8152600060048201526024016102c6565b61071c8161074c565b50565b6000546001600160a01b031633146104715760405163118cdaa760e01b81523360048201526024016102c6565b600080546001600160a01b038381166001600160a01b0319831681178455604051919092169283917f8be0079c531659141344cd1fd0a4f28419497f9722a3daafe3b4186f6b6457e09190a35050565b508054600082559060005260206000209081019061071c91905b808211156107ca57600081556001016107b6565b5090565b80356001600160a01b03811681146107e557600080fd5b919050565b600080604083850312156107fd57600080fd5b8235915061080d602084016107ce565b90509250929050565b6020808252825182820181905260009190848201906040850190845b818110156108575783516001600160a01b031683529284019291840191600101610832565b50909695505050505050565b60006020828403121561087557600080fd5b5035919050565b60006020828403121561088e57600080fd5b610897826107ce565b9392505050565b6000600182016108be57634e487b7160e01b600052601160045260246000fd5b506001019056fea2646970667358221220bf06e5ef69230d147dbcaa0a2487e2ea2e62f459751e307d316d1705c64c1dfc64736f6c63430008140033",
  "devdoc": {
    "details": "开启关闭报名，接受用户报名，获取报名列表。",
    "errors": {
      "OwnableInvalidOwner(address)": [
        {
          "details": "The owner is not a valid owner account. (eg. `address(0)`)"
        }
      ],
      "OwnableUnauthorizedAccount(address)": [
        {
          "details": "The caller account is not authorized to perform an operation."
        }
      ]
    },
    "kind": "dev",
    "methods": {
      "closeCurrentMatchRegistration()": {
        "details": "关闭当前比赛的报名"
      },
      "getCandidatePoolForMatch(uint256)": {
        "details": "获取特定比赛ID的报名列表",
        "params": {
          "_matchId": "比赛ID"
        },
        "returns": {
          "_0": "该比赛的报名地址列表"
        }
      },
      "getCurrentCandidatePool()": {
        "details": "获取当前比赛ID的报名列表",
        "returns": {
          "_0": "报名地址列表"
        }
      },
      "isCandidate(uint256,address)": {
        "details": "检查用户是否报名了某个比赛",
        "params": {
          "_candidate": "要检查的地址",
          "_matchId": "比赛ID"
        },
        "returns": {
          "_0": "如果报名了，则为true，否则为false"
        }
      },
      "openNewMatchRegistration()": {
        "details": "为新的比赛开启报名 增加currentMatchId并开启报名"
      },
      "owner()": {
        "details": "Returns the address of the current owner."
      },
      "registerAsFighter()": {
        "details": "用户报名"
      },
      "renounceOwnership()": {
        "details": "Leaves the contract without owner. It will not be possible to call `onlyOwner` functions. Can only be called by the current owner. NOTE: Renouncing ownership will leave the contract without an owner, thereby disabling any functionality that is only available to the owner."
      },
      "transferOwnership(address)": {
        "details": "Transfers ownership of the contract to a new account (`newOwner`). Can only be called by the current owner."
      }
    },
    "title": "比赛报名合约",
    "version": 1
  },
  "userdoc": {
    "kind": "user",
    "methods": {},
    "version": 1
  },
  "storageLayout": {
    "storage": [
      {
        "astId": 8,
        "contract": "contracts/MatchRegistry.sol:MatchRegistry",
        "label": "_owner",
        "offset": 0,
        "slot": "0",
        "type": "t_address"
      },
      {
        "astId": 185,
        "contract": "contracts/MatchRegistry.sol:MatchRegistry",
        "label": "currentMatchId",
        "offset": 0,
        "slot": "1",
        "type": "t_uint256"
      },
      {
        "astId": 187,
        "contract": "contracts/MatchRegistry.sol:MatchRegistry",
        "label": "registrationOpen",
        "offset": 0,
        "slot": "2",
        "type": "t_bool"
      },
      {
        "astId": 193,
        "contract": "contracts/MatchRegistry.sol:MatchRegistry",
        "label": "isCandidateForMatch",
        "offset": 0,
        "slot": "3",
        "type": "t_mapping(t_uint256,t_mapping(t_address,t_bool))"
      },
      {
        "astId": 198,
        "contract": "contracts/MatchRegistry.sol:MatchRegistry",
        "label": "_candidatesForMatch",
        "offset": 0,
        "slot": "4",
        "type": "t_mapping(t_uint256,t_array(t_address)dyn_storage)"
      }
    ],
    "types": {
      "t_address": {
        "encoding": "inplace",
        "label": "address",
        "numberOfBytes": "20"
      },
      "t_array(t_address)dyn_storage": {
        "base": "t_address",
        "encoding": "dynamic_array",
        "label": "address[]",
        "numberOfBytes": "32"
      },
      "t_bool": {
        "encoding": "inplace",
        "label": "bool",
        "numberOfBytes": "1"
      },
      "t_mapping(t_address,t_bool)": {
        "encoding": "mapping",
        "key": "t_address",
        "label": "mapping(address => bool)",
        "numberOfBytes": "32",
        "value": "t_bool"
      },
      "t_mapping(t_uint256,t_array(t_address)dyn_storage)": {
        "encoding": "mapping",
        "key": "t_uint256",
        "label": "mapping(uint256 => address[])",
        "numberOfBytes": "32",
        "value": "t_array(t_address)dyn_storage"
      },
      "t_mapping(t_uint256,t_mapping(t_address,t_bool))": {
        "encoding": "mapping",
        "key": "t_uint256",
        "label": "mapping(uint256 => mapping(address => bool))",
        "numberOfBytes": "32",
        "value": "t_mapping(t_address,t_bool)"
      },
      "t_uint256": {
        "encoding": "inplace",
        "label": "uint256",
        "numberOfBytes": "32"
      }
    }
  }
}