{
  "address": "0x0769f9B1d1772349Fe8FAFd9F6B83B0832a27cEf",
  "abi": [
    {
      "inputs": [
        {
          "internalType": "address",
          "name": "_initialOwner",
          "type": "address"
        },
        {
          "internalType": "address",
          "name": "_immortalBlockAddr",
          "type": "address"
        },
        {
          "internalType": "address",
          "name": "_audienceManagerAddr",
          "type": "address"
        },
        {
          "internalType": "address",
          "name": "_refereeAddr",
          "type": "address"
        }
      ],
      "stateMutability": "nonpayable",
      "type": "constructor"
    },
    {
      "inputs": [
        {
          "internalType": "address",
          "name": "owner",
          "type": "address"
        }
      ],
      "name": "OwnableInvalidOwner",
      "type": "error"
    },
    {
      "inputs": [
        {
          "internalType": "address",
          "name": "account",
          "type": "address"
        }
      ],
      "name": "OwnableUnauthorizedAccount",
      "type": "error"
    },
    {
      "anonymous": false,
      "inputs": [
        {
          "indexed": true,
          "internalType": "uint256",
          "name": "matchId",
          "type": "uint256"
        },
        {
          "indexed": true,
          "internalType": "uint256",
          "name": "questionIndex",
          "type": "uint256"
        },
        {
          "indexed": true,
          "internalType": "address",
          "name": "player",
          "type": "address"
        },
        {
          "indexed": false,
          "internalType": "bool",
          "name": "isCorrect",
          "type": "bool"
        },
        {
          "indexed": false,
          "internalType": "uint256",
          "name": "newScorePlayerA",
          "type": "uint256"
        },
        {
          "indexed": false,
          "internalType": "uint256",
          "name": "newScorePlayerB",
          "type": "uint256"
        }
      ],
      "name": "AnswerResultSubmitted",
      "type": "event"
    },
    {
      "anonymous": false,
      "inputs": [
        {
          "indexed": true,
          "internalType": "uint256",
          "name": "matchId",
          "type": "uint256"
        },
        {
          "indexed": true,
          "internalType": "address",
          "name": "winner",
          "type": "address"
        },
        {
          "indexed": false,
          "internalType": "uint256",
          "name": "finalScorePlayerA",
          "type": "uint256"
        },
        {
          "indexed": false,
          "internalType": "uint256",
          "name": "finalScorePlayerB",
          "type": "uint256"
        }
      ],
      "name": "MatchConcluded",
      "type": "event"
    },
    {
      "anonymous": false,
      "inputs": [
        {
          "indexed": true,
          "internalType": "uint256",
          "name": "matchId",
          "type": "uint256"
        },
        {
          "indexed": true,
          "internalType": "address",
          "name": "playerA",
          "type": "address"
        },
        {
          "indexed": true,
          "internalType": "address",
          "name": "playerB",
          "type": "address"
        },
        {
          "indexed": false,
          "internalType": "address",
          "name": "firstPlayerTurn",
          "type": "address"
        },
        {
          "indexed": false,
          "internalType": "uint256",
          "name": "startTime",
          "type": "uint256"
        },
        {
          "indexed": false,
          "internalType": "uint256",
          "name": "firstQuestionDeadline",
          "type": "uint256"
        }
      ],
      "name": "MatchStarted",
      "type": "event"
    },
    {
      "anonymous": false,
      "inputs": [
        {
          "indexed": true,
          "internalType": "address",
          "name": "previousOwner",
          "type": "address"
        },
        {
          "indexed": true,
          "internalType": "address",
          "name": "newOwner",
          "type": "address"
        }
      ],
      "name": "OwnershipTransferred",
      "type": "event"
    },
    {
      "anonymous": false,
      "inputs": [
        {
          "indexed": true,
          "internalType": "uint256",
          "name": "matchId",
          "type": "uint256"
        },
        {
          "indexed": true,
          "internalType": "address",
          "name": "playerAddress",
          "type": "address"
        },
        {
          "indexed": false,
          "internalType": "uint8",
          "name": "consecutiveWrong",
          "type": "uint8"
        }
      ],
      "name": "PlayerBecameReplaceable",
      "type": "event"
    },
    {
      "anonymous": false,
      "inputs": [
        {
          "indexed": true,
          "internalType": "uint256",
          "name": "matchId",
          "type": "uint256"
        },
        {
          "indexed": true,
          "internalType": "address",
          "name": "oldPlayer",
          "type": "address"
        },
        {
          "indexed": true,
          "internalType": "address",
          "name": "newPlayer",
          "type": "address"
        }
      ],
      "name": "PlayerReplaced",
      "type": "event"
    },
    {
      "anonymous": false,
      "inputs": [
        {
          "indexed": true,
          "internalType": "uint256",
          "name": "matchId",
          "type": "uint256"
        },
        {
          "indexed": false,
          "internalType": "uint256",
          "name": "nextQuestionIndex",
          "type": "uint256"
        },
        {
          "indexed": false,
          "internalType": "address",
          "name": "nextPlayerTurn",
          "type": "address"
        },
        {
          "indexed": false,
          "internalType": "uint256",
          "name": "newDeadline",
          "type": "uint256"
        }
      ],
      "name": "PlayerTurnAdvanced",
      "type": "event"
    },
    {
      "inputs": [],
      "name": "ANSWER_TIMEOUT_DURATION",
      "outputs": [
        {
          "internalType": "uint256",
          "name": "",
          "type": "uint256"
        }
      ],
      "stateMutability": "view",
      "type": "function"
    },
    {
      "inputs": [],
      "name": "MAX_CONSECUTIVE_WRONG_ANSWERS_FOR_REPLACEMENT",
      "outputs": [
        {
          "internalType": "uint8",
          "name": "",
          "type": "uint8"
        }
      ],
      "stateMutability": "view",
      "type": "function"
    },
    {
      "inputs": [],
      "name": "TOTAL_QUESTIONS",
      "outputs": [
        {
          "internalType": "uint8",
          "name": "",
          "type": "uint8"
        }
      ],
      "stateMutability": "view",
      "type": "function"
    },
    {
      "inputs": [],
      "name": "audienceManagerContractAddress",
      "outputs": [
        {
          "internalType": "address",
          "name": "",
          "type": "address"
        }
      ],
      "stateMutability": "view",
      "type": "function"
    },
    {
      "inputs": [],
      "name": "immortalBlockContractAddress",
      "outputs": [
        {
          "internalType": "address",
          "name": "",
          "type": "address"
        }
      ],
      "stateMutability": "view",
      "type": "function"
    },
    {
      "inputs": [
        {
          "internalType": "uint256",
          "name": "",
          "type": "uint256"
        }
      ],
      "name": "matches",
      "outputs": [
        {
          "internalType": "uint256",
          "name": "matchId",
          "type": "uint256"
        },
        {
          "components": [
            {
              "internalType": "address",
              "name": "playerAddress",
              "type": "address"
            },
            {
              "internalType": "uint256",
              "name": "score",
              "type": "uint256"
            },
            {
              "internalType": "uint8",
              "name": "consecutiveWrongAnswers",
              "type": "uint8"
            },
            {
              "internalType": "bool",
              "name": "isActive",
              "type": "bool"
            }
          ],
          "internalType": "struct MatchContract.PlayerMatchState",
          "name": "playerA",
          "type": "tuple"
        },
        {
          "components": [
            {
              "internalType": "address",
              "name": "playerAddress",
              "type": "address"
            },
            {
              "internalType": "uint256",
              "name": "score",
              "type": "uint256"
            },
            {
              "internalType": "uint8",
              "name": "consecutiveWrongAnswers",
              "type": "uint8"
            },
            {
              "internalType": "bool",
              "name": "isActive",
              "type": "bool"
            }
          ],
          "internalType": "struct MatchContract.PlayerMatchState",
          "name": "playerB",
          "type": "tuple"
        },
        {
          "internalType": "uint8",
          "name": "currentQuestionIndex",
          "type": "uint8"
        },
        {
          "internalType": "address",
          "name": "currentPlayerTurn",
          "type": "address"
        },
        {
          "internalType": "uint256",
          "name": "currentQuestionDeadline",
          "type": "uint256"
        },
        {
          "internalType": "enum MatchContract.MatchStatus",
          "name": "status",
          "type": "uint8"
        },
        {
          "internalType": "address",
          "name": "winner",
          "type": "address"
        }
      ],
      "stateMutability": "view",
      "type": "function"
    },
    {
      "inputs": [],
      "name": "owner",
      "outputs": [
        {
          "internalType": "address",
          "name": "",
          "type": "address"
        }
      ],
      "stateMutability": "view",
      "type": "function"
    },
    {
      "inputs": [],
      "name": "refereeAddress",
      "outputs": [
        {
          "internalType": "address",
          "name": "",
          "type": "address"
        }
      ],
      "stateMutability": "view",
      "type": "function"
    },
    {
      "inputs": [],
      "name": "renounceOwnership",
      "outputs": [],
      "stateMutability": "nonpayable",
      "type": "function"
    },
    {
      "inputs": [
        {
          "internalType": "uint256",
          "name": "_matchId",
          "type": "uint256"
        },
        {
          "internalType": "address",
          "name": "_playerToReplace",
          "type": "address"
        },
        {
          "internalType": "address",
          "name": "_newPlayer",
          "type": "address"
        }
      ],
      "name": "replacePlayer",
      "outputs": [],
      "stateMutability": "nonpayable",
      "type": "function"
    },
    {
      "inputs": [
        {
          "internalType": "address",
          "name": "_newAddress",
          "type": "address"
        }
      ],
      "name": "setAudienceManagerContract",
      "outputs": [],
      "stateMutability": "nonpayable",
      "type": "function"
    },
    {
      "inputs": [
        {
          "internalType": "address",
          "name": "_newAddress",
          "type": "address"
        }
      ],
      "name": "setImmortalBlockContract",
      "outputs": [],
      "stateMutability": "nonpayable",
      "type": "function"
    },
    {
      "inputs": [
        {
          "internalType": "address",
          "name": "_newAddress",
          "type": "address"
        }
      ],
      "name": "setRefereeAddress",
      "outputs": [],
      "stateMutability": "nonpayable",
      "type": "function"
    },
    {
      "inputs": [
        {
          "internalType": "uint256",
          "name": "_matchId",
          "type": "uint256"
        },
        {
          "internalType": "address",
          "name": "_playerA",
          "type": "address"
        },
        {
          "internalType": "address",
          "name": "_playerB",
          "type": "address"
        }
      ],
      "name": "startMatch",
      "outputs": [],
      "stateMutability": "nonpayable",
      "type": "function"
    },
    {
      "inputs": [
        {
          "internalType": "uint256",
          "name": "_matchId",
          "type": "uint256"
        },
        {
          "internalType": "address",
          "name": "_playerWhoAnswered",
          "type": "address"
        },
        {
          "internalType": "uint256",
          "name": "_questionIndex",
          "type": "uint256"
        },
        {
          "internalType": "bool",
          "name": "_isCorrect",
          "type": "bool"
        }
      ],
      "name": "submitAnswerResult",
      "outputs": [],
      "stateMutability": "nonpayable",
      "type": "function"
    },
    {
      "inputs": [
        {
          "internalType": "address",
          "name": "newOwner",
          "type": "address"
        }
      ],
      "name": "transferOwnership",
      "outputs": [],
      "stateMutability": "nonpayable",
      "type": "function"
    }
  ],
  "transactionHash": "0xd26278e1d55c8e001631480e400cacf24fbbb54bbd0d3ab6a3114f5843b2b5ab",
  "args": [
    "0x8d6184D01C461d53044094c6e8850bf60604dDA2",
    "0x4E810572FBEB16bf58c6e94CDD9009130e3B04d5",
    "0x1bbE773134E6aC83541C3baCF384f55E5d50F0Ae",
    "0x8d6184D01C461d53044094c6e8850bf60604dDA2"
  ],
  "numDeployments": 1,
  "solcInputHash": "9c31133fffffde4826cff076505bdc89",
  "bytecode": "0x60806040523480156200001157600080fd5b5060405162001cfc38038062001cfc833981016040819052620000349162000285565b836001600160a01b0381166200006557604051631e4fbdf760e01b8152600060048201526024015b60405180910390fd5b620000708162000218565b506001600160a01b038316620000ef5760405162461bcd60e51b815260206004820152603660248201527f4d61746368436f6e74726163743a20496e76616c696420696d6d6f7274616c2060448201527f626c6f636b20636f6e747261637420616464726573730000000000000000000060648201526084016200005c565b6001600160a01b0382166200016d5760405162461bcd60e51b815260206004820152603860248201527f4d61746368436f6e74726163743a20496e76616c69642061756469656e63652060448201527f6d616e6167657220636f6e74726163742061646472657373000000000000000060648201526084016200005c565b6001600160a01b038116620001d45760405162461bcd60e51b815260206004820152602660248201527f4d61746368436f6e74726163743a20496e76616c69642072656665726565206160448201526564647265737360d01b60648201526084016200005c565b600180546001600160a01b039485166001600160a01b03199182161790915560028054938516938216939093179092556003805491909316911617905550620002e2565b600080546001600160a01b038381166001600160a01b0319831681178455604051919092169283917f8be0079c531659141344cd1fd0a4f28419497f9722a3daafe3b4186f6b6457e09190a35050565b80516001600160a01b03811681146200028057600080fd5b919050565b600080600080608085870312156200029c57600080fd5b620002a78562000268565b9350620002b76020860162000268565b9250620002c76040860162000268565b9150620002d76060860162000268565b905092959194509250565b611a0a80620002f26000396000f3fe608060405234801561001057600080fd5b50600436106101005760003560e01c80638da5cb5b11610097578063be50d65b11610066578063be50d65b146102d4578063e867344c146102e7578063f2fde38b146102fa578063f7ef9f4f1461030d57600080fd5b80638da5cb5b14610287578063900cc19e146102985780639158f979146102ab578063a027bf24146102c157600080fd5b806347b7cf34116100d357806347b7cf341461023f5780634de7a65d14610259578063715018a61461026c5780637552aefd1461027457600080fd5b806316c1e3561461010557806319d448df14610135578063382eee021461014a5780634768d4ef1461015d575b600080fd5b600354610118906001600160a01b031681565b6040516001600160a01b0390911681526020015b60405180910390f35b61014861014336600461176b565b610315565b005b61014861015836600461176b565b6103a9565b61022b61016b36600461178d565b600460208181526000928352604092839020805484516080808201875260018401546001600160a01b039081168352600285015483870152600385015460ff808216858b015261010091829004811615156060808701919091528a519485018b52988701548316845260058701549784019790975260068601548088169984019990995297889004861615159682019690965260078401546008850154600990950154939792969195818116959184900483169491939082169291041688565b60405161012c9897969594939291906117bc565b610247600a81565b60405160ff909116815260200161012c565b610148610267366004611890565b61044f565b610148610a6b565b600254610118906001600160a01b031681565b6000546001600160a01b0316610118565b600154610118906001600160a01b031681565b6102b3603c81565b60405190815260200161012c565b6101486102cf3660046118cc565b610a7f565b6101486102e236600461176b565b611161565b6101486102f5366004611890565b611200565b61014861030836600461176b565b611545565b610247600381565b61031d611583565b6001600160a01b0381166103875760405162461bcd60e51b815260206004820152602660248201527f4d61746368436f6e74726163743a20496e76616c69642072656665726565206160448201526564647265737360d01b60648201526084015b60405180910390fd5b600380546001600160a01b0319166001600160a01b0392909216919091179055565b6103b1611583565b6001600160a01b03811661042d5760405162461bcd60e51b815260206004820152603860248201527f4d61746368436f6e74726163743a20496e76616c69642061756469656e63652060448201527f6d616e6167657220636f6e747261637420616464726573730000000000000000606482015260840161037e565b600280546001600160a01b0319166001600160a01b0392909216919091179055565b610457611583565b6000838152600460205260409020805484146104855760405162461bcd60e51b815260040161037e90611919565b6003600982015460ff1660058111156104a0576104a06117a6565b14806104c457506004600982015460ff1660058111156104c2576104c26117a6565b145b6105455760405162461bcd60e51b815260206004820152604660248201527f4d61746368436f6e74726163743a204d61746368206973206e6f7420696e206160448201527f207374617465207768657265206120706c617965722063616e206265207265706064820152653630b1b2b21760d11b608482015260a40161037e565b6001600160a01b0383161580159061056557506001600160a01b03821615155b6105c95760405162461bcd60e51b815260206004820152602f60248201527f4d61746368436f6e74726163743a20506c61796572206164647265737365732060448201526e31b0b73737ba103132903d32b9379760891b606482015260840161037e565b816001600160a01b0316836001600160a01b0316036106605760405162461bcd60e51b815260206004820152604760248201527f4d61746368436f6e74726163743a204e657720706c617965722063616e6e6f7460448201527f206265207468652073616d6520617320746865206f6e65206265696e67207265606482015266383630b1b2b21760c91b608482015260a40161037e565b6000806003600984015460ff16600581111561067e5761067e6117a6565b036107485760018301546001600160a01b0386811691161461072e5760405162461bcd60e51b815260206004820152605760248201527f4d61746368436f6e74726163743a20506c6179657220746f207265706c61636560448201527f20646f6573206e6f74206d61746368207265706c61636561626c65207374617460648201527f75732028657870656374656420506c617965722041292e000000000000000000608482015260a40161037e565b5050600481015460018201906001600160a01b0316610809565b60048301546001600160a01b038681169116146107f35760405162461bcd60e51b815260206004820152605760248201527f4d61746368436f6e74726163743a20506c6179657220746f207265706c61636560448201527f20646f6573206e6f74206d61746368207265706c61636561626c65207374617460648201527f75732028657870656374656420506c617965722042292e000000000000000000608482015260a40161037e565b5050600181015460048201906001600160a01b03165b806001600160a01b0316846001600160a01b0316036108855760405162461bcd60e51b815260206004820152603260248201527f4d61746368436f6e74726163743a204e657720706c6179657220697320616c7260448201527132b0b23c903a34329037b83837b732b73a1760711b606482015260840161037e565b60028201805461ff001916905560018301546001600160a01b039081169086160361090e57604080516080810182526001600160a01b03861680825260018086015460208401819052600094840194909452606090920182905290850180546001600160a01b0319169091179055600284015560038301805461ffff1916610100179055610970565b604080516080810182526001600160a01b038616808252600180860154602084018190526000948401949094526060909201919091526004850180546001600160a01b0319169091179055600584015560068301805461ffff19166101001790555b60098301805460ff1916600217905560078301546001600160a01b0386811661010090920416036109be57600783018054610100600160a81b0319166101006001600160a01b038716021790555b6109c9603c42611983565b60088401556040516001600160a01b03808616919087169088907fdad1dbb9a78bbc7279b8af6b35551eece4af2803c7d6a58bc4ab785b6ba9e11d90600090a4600783015460088401546040805160ff841681526101009093046001600160a01b0316602084015282015286907fa59e669b9093ccc4685ff4947c2078b7953c77c29fac76c44bc195ee0e0b39169060600160405180910390a2505050505050565b610a73611583565b610a7d60006115b0565b565b6003546001600160a01b03163314610af55760405162461bcd60e51b815260206004820152603360248201527f4d61746368436f6e74726163743a2043616c6c6572206973206e6f742074686560448201527220617574686f72697a6564207265666572656560681b606482015260840161037e565b600084815260046020526040902080548514610b235760405162461bcd60e51b815260040161037e90611919565b6002600982015460ff166005811115610b3e57610b3e6117a6565b1480610b6257506003600982015460ff166005811115610b6057610b606117a6565b145b80610b8557506004600982015460ff166005811115610b8357610b836117a6565b145b610bea5760405162461bcd60e51b815260206004820152603060248201527f4d61746368436f6e74726163743a204d61746368206973206e6f7420696e206160448201526f10383630bcb0b136329039ba30ba329760811b606482015260840161037e565b600781015460ff168314610c7b5760405162461bcd60e51b815260206004820152604c60248201527f4d61746368436f6e74726163743a205375626d697474656420726573756c742060448201527f697320666f7220616e206f75746461746564206f72206675747572652071756560648201526b39ba34b7b71034b73232bc1760a11b608482015260a40161037e565b60078101546001600160a01b038581166101009092041614610cfd5760405162461bcd60e51b815260206004820152603560248201527f4d61746368436f6e74726163743a2049742773206e6f74207468697320706c616044820152743cb2b913b9903a3ab937103a379030b739bbb2b91760591b606482015260840161037e565b600181015460009081906001600160a01b0390811690871603610d295750506001810160048201610dbe565b60048301546001600160a01b0390811690871603610d505750506004810160018201610dbe565b60405162461bcd60e51b815260206004820152603d60248201527f4d61746368436f6e74726163743a20506c617965722077686f20616e7377657260448201527f6564206973206e6f742070617274206f662074686973206d617463682e000000606482015260840161037e565b8315610ef557600182018054906000610dd68361199c565b909155505060028201805460ff191690556003600984015460ff166005811115610e0257610e026117a6565b148015610e1e575060018301546001600160a01b038781169116145b80610e5b57506004600984015460ff166005811115610e3f57610e3f6117a6565b148015610e5b575060048301546001600160a01b038781169116145b15610ef05760018301546000906001600160a01b038881169116148015610e9a57506004600985015460ff166005811115610e9857610e986117a6565b145b80610ed7575060048401546001600160a01b038881169116148015610ed757506003600985015460ff166005811115610ed557610ed56117a6565b145b905080610eee5760098401805460ff191660021790555b505b610fba565b60028201805460ff16906000610f0a836119b5565b82546101009290920a60ff818102199093169183160217909155600284015460039116109050610fba5760018301546001600160a01b0390811690871603610f605760098301805460ff19166003179055610f70565b60098301805460ff191660041790555b600282015460405160ff90911681526001600160a01b0387169088907f049048c07309020597ef2e5a5fae448927abaa6c58f51d707ab4a44bb4046b119060200160405180910390a35b60028301546005840154604080518715158152602081018490529081018290526001600160a01b0389169088908b907f409ee49d147354f7e1c81ec76ba3786269472b638ea50f010975cf5c579f5d379060600160405180910390a460078501805460ff1690600061102b836119b5565b82546101009290920a60ff8181021990931691831602179091556007870154600a91161090506110685761105e89611600565b505050505061115b565b600185015460078601546001600160a01b03918216610100909104909116036110bd5760048501546007860180546001600160a01b0390921661010002610100600160a81b03199092169190911790556110eb565b60018501546007860180546001600160a01b0390921661010002610100600160a81b03199092169190911790555b6110f6603c42611983565b6008860181905560078601546040805160ff831681526101009092046001600160a01b0316602083015281019190915289907fa59e669b9093ccc4685ff4947c2078b7953c77c29fac76c44bc195ee0e0b39169060600160405180910390a250505050505b50505050565b611169611583565b6001600160a01b0381166111de5760405162461bcd60e51b815260206004820152603660248201527f4d61746368436f6e74726163743a20496e76616c696420696d6d6f7274616c20604482015275626c6f636b20636f6e7472616374206164647265737360501b606482015260840161037e565b600180546001600160a01b0319166001600160a01b0392909216919091179055565b611208611583565b6000831161126e5760405162461bcd60e51b815260206004820152602d60248201527f4d61746368436f6e74726163743a204d617463684964206d757374206265206760448201526c0726561746572207468616e203609c1b606482015260840161037e565b6001600160a01b0382161580159061128e57506001600160a01b03811615155b6112f05760405162461bcd60e51b815260206004820152602d60248201527f4d61746368436f6e74726163743a20506c61796572206164647265737320636160448201526c6e6e6f7420626520656d70747960981b606482015260840161037e565b806001600160a01b0316826001600160a01b0316036113705760405162461bcd60e51b815260206004820152603660248201527f4d61746368436f6e74726163743a2054776f20706c61796572206164647265736044820152757365732063616e6e6f74206265207468652073616d6560501b606482015260840161037e565b600083815260046020526040902060018101546001600160a01b03161580156113b157506000600982015460ff1660058111156113af576113af6117a6565b145b6114235760405162461bcd60e51b815260206004820152603860248201527f4d61746368436f6e74726163743a20546865206d61746368496420616c72656160448201527f647920657869737473206f722068617320737461727465640000000000000000606482015260840161037e565b600084815260046020819052604082208681556001810180546001600160a01b03199081166001600160a01b038981169182179093556002840186905560038401805461010061ffff199182168117909255958501805490931693891693909317909155600583019490945560068201805490931681179092556007810180546001600160a81b03191692909302919091179091556114c3603c42611983565b600882018190556009820180546001600160a81b03191660021790556007820154604080516001600160a01b036101009093048316815242602082015290810192909252848116919086169087907f559375f5588a0476a76232eeff01f58e107e094ed42b7ad28ddfb2b92463b9389060600160405180910390a45050505050565b61154d611583565b6001600160a01b03811661157757604051631e4fbdf760e01b81526000600482015260240161037e565b611580816115b0565b50565b6000546001600160a01b03163314610a7d5760405163118cdaa760e01b815233600482015260240161037e565b600080546001600160a01b038381166001600160a01b0319831681178455604051919092169283917f8be0079c531659141344cd1fd0a4f28419497f9722a3daafe3b4186f6b6457e09190a35050565b60008181526004602052604090206005600982015460ff166005811115611629576116296117a6565b036116855760405162461bcd60e51b815260206004820152602660248201527f4d61746368436f6e74726163743a204d6174636820616c726561647920636f6e60448201526518db1d59195960d21b606482015260840161037e565b6005810154600282015460009110156116ac575060018101546001600160a01b03166116d4565b6002820154600583015411156116d0575060048101546001600160a01b03166116d4565b5060005b60098201805460056001600160a81b03199091166101006001600160a01b03851690810260ff1916919091178217909255600284015490840154604080519283526020830191909152805186927fcf21476e48a91f70cc503e2917f4c4a58fa61cd4e2c075cf12ab0a7fb14335ba92908290030190a3505050565b80356001600160a01b038116811461176657600080fd5b919050565b60006020828403121561177d57600080fd5b6117868261174f565b9392505050565b60006020828403121561179f57600080fd5b5035919050565b634e487b7160e01b600052602160045260246000fd5b8881526101c081016117fd602083018a80516001600160a01b031682526020808201519083015260408082015160ff16908301526060908101511515910152565b87516001600160a01b031660a0830152602088015160c0830152604088015160ff1660e08301526060880151151561010083015260ff87166101208301526001600160a01b0386811661014084015261016083018690526006851061187257634e487b7160e01b600052602160045260246000fd5b846101808401528084166101a0840152509998505050505050505050565b6000806000606084860312156118a557600080fd5b833592506118b56020850161174f565b91506118c36040850161174f565b90509250925092565b600080600080608085870312156118e257600080fd5b843593506118f26020860161174f565b9250604085013591506060850135801515811461190e57600080fd5b939692955090935050565b60208082526034908201527f4d61746368436f6e74726163743a204d61746368206e6f7420696e697469616c60408201527334bd32b21037b91024a21036b4b9b6b0ba31b41760611b606082015260800190565b634e487b7160e01b600052601160045260246000fd5b808201808211156119965761199661196d565b92915050565b6000600182016119ae576119ae61196d565b5060010190565b600060ff821660ff81036119cb576119cb61196d565b6001019291505056fea2646970667358221220a157780681414605ea3e18f2a04135218ec2a892c673a3bae3f9b6707b0062e164736f6c63430008140033",
  "devdoc": {
    "errors": {
      "OwnableInvalidOwner(address)": [
        {
          "details": "The owner is not a valid owner account. (eg. `address(0)`)"
        }
      ],
      "OwnableUnauthorizedAccount(address)": [
        {
          "details": "The caller account is not authorized to perform an operation."
        }
      ]
    },
    "kind": "dev",
    "methods": {
      "owner()": {
        "details": "Returns the address of the current owner."
      },
      "renounceOwnership()": {
        "details": "Leaves the contract without owner. It will not be possible to call `onlyOwner` functions. Can only be called by the current owner. NOTE: Renouncing ownership will leave the contract without an owner, thereby disabling any functionality that is only available to the owner."
      },
      "replacePlayer(uint256,address,address)": {
        "details": " 0  InProgress",
        "params": {
          "_matchId": "ID",
          "_newPlayer": "",
          "_playerToReplace": ""
        }
      },
      "startMatch(uint256,address,address)": {
        "details": "",
        "params": {
          "_matchId": "ID MatchRegistry ",
          "_playerA": "A",
          "_playerB": "B"
        }
      },
      "submitAnswerResult(uint256,address,uint256,bool)": {
        "details": " ",
        "params": {
          "_isCorrect": "",
          "_matchId": "ID",
          "_playerWhoAnswered": "",
          "_questionIndex": ""
        }
      },
      "transferOwnership(address)": {
        "details": "Transfers ownership of the contract to a new account (`newOwner`). Can only be called by the current owner."
      }
    },
    "version": 1
  },
  "userdoc": {
    "kind": "user",
    "methods": {},
    "version": 1
  },
  "storageLayout": {
    "storage": [
      {
        "astId": 8,
        "contract": "contracts/MatchContract.sol:MatchContract",
        "label": "_owner",
        "offset": 0,
        "slot": "0",
        "type": "t_address"
      },
      {
        "astId": 852,
        "contract": "contracts/MatchContract.sol:MatchContract",
        "label": "immortalBlockContractAddress",
        "offset": 0,
        "slot": "1",
        "type": "t_address"
      },
      {
        "astId": 854,
        "contract": "contracts/MatchContract.sol:MatchContract",
        "label": "audienceManagerContractAddress",
        "offset": 0,
        "slot": "2",
        "type": "t_address"
      },
      {
        "astId": 856,
        "contract": "contracts/MatchContract.sol:MatchContract",
        "label": "refereeAddress",
        "offset": 0,
        "slot": "3",
        "type": "t_address"
      },
      {
        "astId": 897,
        "contract": "contracts/MatchContract.sol:MatchContract",
        "label": "matches",
        "offset": 0,
        "slot": "4",
        "type": "t_mapping(t_uint256,t_struct(Match)892_storage)"
      }
    ],
    "types": {
      "t_address": {
        "encoding": "inplace",
        "label": "address",
        "numberOfBytes": "20"
      },
      "t_bool": {
        "encoding": "inplace",
        "label": "bool",
        "numberOfBytes": "1"
      },
      "t_enum(MatchStatus)872": {
        "encoding": "inplace",
        "label": "enum MatchContract.MatchStatus",
        "numberOfBytes": "1"
      },
      "t_mapping(t_uint256,t_struct(Match)892_storage)": {
        "encoding": "mapping",
        "key": "t_uint256",
        "label": "mapping(uint256 => struct MatchContract.Match)",
        "numberOfBytes": "32",
        "value": "t_struct(Match)892_storage"
      },
      "t_struct(Match)892_storage": {
        "encoding": "inplace",
        "label": "struct MatchContract.Match",
        "members": [
          {
            "astId": 874,
            "contract": "contracts/MatchContract.sol:MatchContract",
            "label": "matchId",
            "offset": 0,
            "slot": "0",
            "type": "t_uint256"
          },
          {
            "astId": 877,
            "contract": "contracts/MatchContract.sol:MatchContract",
            "label": "playerA",
            "offset": 0,
            "slot": "1",
            "type": "t_struct(PlayerMatchState)865_storage"
          },
          {
            "astId": 880,
            "contract": "contracts/MatchContract.sol:MatchContract",
            "label": "playerB",
            "offset": 0,
            "slot": "4",
            "type": "t_struct(PlayerMatchState)865_storage"
          },
          {
            "astId": 882,
            "contract": "contracts/MatchContract.sol:MatchContract",
            "label": "currentQuestionIndex",
            "offset": 0,
            "slot": "7",
            "type": "t_uint8"
          },
          {
            "astId": 884,
            "contract": "contracts/MatchContract.sol:MatchContract",
            "label": "currentPlayerTurn",
            "offset": 1,
            "slot": "7",
            "type": "t_address"
          },
          {
            "astId": 886,
            "contract": "contracts/MatchContract.sol:MatchContract",
            "label": "currentQuestionDeadline",
            "offset": 0,
            "slot": "8",
            "type": "t_uint256"
          },
          {
            "astId": 889,
            "contract": "contracts/MatchContract.sol:MatchContract",
            "label": "status",
            "offset": 0,
            "slot": "9",
            "type": "t_enum(MatchStatus)872"
          },
          {
            "astId": 891,
            "contract": "contracts/MatchContract.sol:MatchContract",
            "label": "winner",
            "offset": 1,
            "slot": "9",
            "type": "t_address"
          }
        ],
        "numberOfBytes": "320"
      },
      "t_struct(PlayerMatchState)865_storage": {
        "encoding": "inplace",
        "label": "struct MatchContract.PlayerMatchState",
        "members": [
          {
            "astId": 858,
            "contract": "contracts/MatchContract.sol:MatchContract",
            "label": "playerAddress",
            "offset": 0,
            "slot": "0",
            "type": "t_address"
          },
          {
            "astId": 860,
            "contract": "contracts/MatchContract.sol:MatchContract",
            "label": "score",
            "offset": 0,
            "slot": "1",
            "type": "t_uint256"
          },
          {
            "astId": 862,
            "contract": "contracts/MatchContract.sol:MatchContract",
            "label": "consecutiveWrongAnswers",
            "offset": 0,
            "slot": "2",
            "type": "t_uint8"
          },
          {
            "astId": 864,
            "contract": "contracts/MatchContract.sol:MatchContract",
            "label": "isActive",
            "offset": 1,
            "slot": "2",
            "type": "t_bool"
          }
        ],
        "numberOfBytes": "96"
      },
      "t_uint256": {
        "encoding": "inplace",
        "label": "uint256",
        "numberOfBytes": "32"
      },
      "t_uint8": {
        "encoding": "inplace",
        "label": "uint8",
        "numberOfBytes": "1"
      }
    }
  }
}